:100000000C9434000C9446000C9446000C9446006A
:100010000C9446000C9446000C9446000C94460048
:100020000C9446000C9446000C9446000C94460038
:100030000C9446000C9446000C9446000C94460028
:100040000C9446000C9446000C9446000C94460018
:100050000C9446000C9446000C9446000C94460008
:100060000C9446000C94460011241FBECFEFD8E03C
:10007000DEBFCDBF21E0A0E0B1E001C01D92A23003
:10008000B207E1F70E9477000C94CE000C940000B8
:100090001092C5008093C400E2ECF0E0808186609D
:1000A0008083E1ECF0E080818860808380E88FBF0E
:1000B00008959091C00095FFFCCF8093C6000895ED
:1000C000ECE7F0E0808184668083EAE7F0E08081FD
:1000D00080688083089580917A00806480937A009C
:1000E00080917A0086FDFCCF80917900089588E0A8
:1000F0000E9448000E94600088E68AB988E084B9BE
:1001000083E084BD84B5806F84BD85B5846085BD82
:100110008FEF87BD88BD9091B00093639093B0003E
:100120009091B10094609093B1008093B40080E806
:100130008FBFD9B1D470C0E00E946B00282F30E08F
:100140003093010120930001C11102C087BD08C096
:10015000C13011F488BD04C0C23011F48093B400E2
:1001600089B18470D81779F0811105C0C23010F4BC
:10017000CF5F01C0C0E020E030E02F5F3F4F20356F
:1001800093EC3907D1F72FEF31EE94E02150304056
:100190009040E1F700C00000D82FCECFF894FFCFF9
:00000001FF
