:100000000C9434000C9451000C9451000C94510049
:100010000C9451000C9451000C9451000C9451001C
:100020000C9451000C9451000C9451000C94B304A6
:100030000C9451000C94DB040C9451000C9451006E
:100040000C9451000C9451000C9451000C945100EC
:100050000C9451000C9451000C9451000C945100DC
:100060000C9451000C94510011241FBECFEFD8E026
:10007000DEBFCDBF11E0A0E0B1E0E8E9FAE002C0E8
:1000800005900D92AA34B107D9F721E0AAE4B1E0B6
:1000900001C01D92AE34B207E1F70E94D7020C9462
:1000A0004A050C940000CF93DF9300D000D0CDB769
:1000B000DEB79C838B830EC08CEF98E09A83898394
:1000C000000089819A819C01215031093A8329835A
:1000D000892BB9F78B819C819C01215031093C838C
:1000E0002B83892B49F700000F900F900F900F90F2
:1000F000DF91CF910895CF93DF93CDB7DEB784EC36
:1001000090E020E1FC01208385EC90E0FC0110826E
:1001100080EC90E022E0FC01208381EC90E028E17B
:10012000FC01208382EC90E026E0FC0120830000AB
:10013000DF91CF910895CF93DF931F92CDB7DEB7B4
:100140008983000080EC90E0FC018081882F90E0A2
:1001500080729927892BB1F386EC90E02981FC010C
:10016000208300000F90DF91CF910895CF93DF930C
:10017000CDB7DEB7000080EC90E0FC0180818823E1
:10018000D4F786EC90E0FC018081DF91CF91089557
:10019000CF93DF9300D0CDB7DEB79A8389830BC0AE
:1001A00089819A819C012F5F3F4F3A832983FC010B
:1001B00080810E949B0089819A81FC018081882333
:1001C00079F700000F900F90DF91CF910895CF93B2
:1001D000DF93CDB7DEB727970FB6F894DEBF0FBE1B
:1001E000CDBF89837B836A835D834C833F832E836A
:1001F00089818095898389818535C8F49981892F82
:10020000880F890F81952FEF280F8A819B81FC0130
:1002100020838C819D81FC0110829981892F880F18
:10022000282F290F8E819F81FC0120833AC089816C
:100230008A3AE0F48981855589838A819B81FC0112
:1002400010829981892F880F282F290F8C819D81F9
:10025000FC0120839981892F880F890F81952FEFC9
:10026000280F8E819F81FC0120831BC089818A5ABF
:1002700089839981892F880F282F290F8A819B8153
:10028000FC0120839981892F880F890F81952FEF99
:10029000280F8C819D81FC0120838E819F81FC0130
:1002A0001082000027960FB6F894DEBF0FBECDBFB8
:1002B000DF91CF9108951F93CF93DF93CDB7DEB732
:1002C0002D970FB6F894DEBF0FBECDBF99878887F4
:1002D0007B876A875D874C878C859D8501979A838C
:1002E00089838A859B859E838D8330C08885998587
:1002F0009C838B83888599852AE030E0B9010E9430
:100300002205CB01998788878D819E819C012F5F73
:100310003F4F3E832D832B813C81A901475F5F4F77
:1003200068857985E6EF1E2F16039001179F300D23
:100330001124240F351F20503F4FF9012081FC016B
:10034000208389819A8101979A83898388859985F9
:10035000892B21F089819A81892B41F68B819C819F
:1003600099239CF489819A81892B79F08D819E81D2
:100370009C012F5F3F4F3E832D832DE2FC012083A4
:1003800089819A8101979A83898389819A81892BAE
:1003900049F08D819E819C01215031093E832D833E
:1003A000FC0110822D813E818A859B85A901481B15
:1003B000590BCA019C838B831CC08D819E81FC01DB
:1003C00080818F838D819E819C01215031093E83E4
:1003D0002D832A853B85F9012081FC0120838A85B4
:1003E0009B859C012F5F3F4F3B872A872F81FC0114
:1003F00020832A853B858D819E8128173907E8F265
:100400008B819C812D960FB6F894DEBF0FBECDBFB9
:10041000DF91CF911F910895CF93DF93CDB7DEB7D2
:100420008CE790E02CE730E0F90120812460FC01AA
:1004300020838AE790E02AE730E0F90120812064F8
:10044000FC01208300008AE790E0FC018081882F76
:1004500090E080719927892BB1F38AE790E02AE731
:1004600030E0F90120812061FC01208388E790E0E1
:10047000FC0180819181DF91CF910895CF93DF932B
:10048000CDB7DEB780E890E0FC01108281E890E013
:10049000FC01108284E890E0FC01118210828FE65A
:1004A00090E02FE630E0F90120812160FC012083FB
:1004B0008FE590E02FE530E0F90120812068FC0114
:1004C000208381E890E021E830E0F901208122607A
:1004D000FC0120830000DF91CF910895CF93DF933B
:1004E000CDB7DEB780E890E0FC01108280E890E0B4
:1004F00020E830E0F90120812260FC01208381E8BE
:1005000090E028E1FC01208384E890E0FC01118266
:1005100010828FE690E02FE630E0F9012081216023
:10052000FC0120838FE690E02FE630E0F901208186
:100530002260FC0120838FE590E02FE530E0F90197
:1005400020812068FC01208381E890E021E830E0F0
:10055000F90120812260FC01208388E890E020EAF4
:100560003FE0FC013183208386E890E020E83EE410
:10057000FC013183208381E080934D010000DF91F5
:10058000CF910895CF93DF93CDB7DEB781E890E0A8
:10059000FC0110828FE590E02FE530E0F901208129
:1005A0002F77FC0120830000DF91CF910895CF9336
:1005B000DF93CDB7DEB76A970FB6F894DEBF0FBEF4
:1005C000CDBF0E947B0084E191E00E94C80084E2DC
:1005D00090E02FE0FC01208387E290E022E0FC0124
:1005E00020838AE290E028E6FC01208385E290E007
:1005F00020914A012F70FC01208384E490E020E8E0
:10060000FC01208384E490E024E430E0F9012081BF
:100610002062FC01208384E490E024E430E0F901CE
:1006200020812360FC01208385E490E021E0FC012F
:10063000208387E490E0FC01108288E490E0FC01D4
:10064000108280EB90E020E2FC01208380EB90E0C0
:1006500020EB30E0F90120812360FC01208381EB55
:1006600090E021E0FC01208384EB90E0FC0110820B
:100670008CE790E020E4FC0120838AE790E027E803
:10068000FC012083198287E490E02FEFFC01208396
:1006900088E490E02FEFFC01208384EB90E02FEFC3
:1006A000FC01208389E290E0FC018081882F90E0AA
:1006B00084709927892B09F046C080914C018823CA
:1006C00009F043C080914A018F5F80934A012091D5
:1006D0004A018BEA289F812D1124982F9695892F06
:1006E000880F890F922F981B90934A0185E290E022
:1006F00020914A012F70FC01208381E080934C01FE
:1007000080914A01882F90E08130910569F0823014
:10071000910579F0892B09F011C08EE191E00E94DA
:10072000C80010924D010AC088E291E00E94C80002
:1007300005C087E391E00E94C800000084E190E0DA
:100740000E94530002C010924C0180914A01882FF0
:1007500090E08130910509F481C08230910509F45F
:10076000B6C0892B09F0F2C081E080934B010E9452
:100770003E02000086E290E0FC018081882F90E03C
:1007800080729927892B21F480914B01882391F75E
:1007900080914B01882309F4D6C00E943E020000DC
:1007A00086E290E0FC018081882F90E0807299279A
:1007B000892B21F080914B01882391F784E890E008
:1007C000FC01808191819B838A830E94C202809177
:1007D0004B01882309F4B9C08A819B81805A9F40CC
:1007E0009B838A838A819B819E01295F3F4F44E1DD
:1007F00050E0B9010E945B01CE0107960E94C8003B
:1008000087E491E00E94C8008A819B819695879534
:10081000929582958F7089279F708927E82F9E0176
:100820002A5F3F4FAE014B5F5F4FCE010496BC0184
:100830008E2F0E94E70087E490E02C812095FC0138
:10084000208388E490E02D812095FC01208384EBB7
:1008500090E02E812095FC01208378C0E98181E021
:100860008E0F89839E012A5F3F4FAE014B5F5F4F22
:10087000CE010496BC018E2F0E94E70088E890E02C
:100880002981222F30E023583F4F220F331F22951A
:100890003295307F3227207F3227FC01318320833D
:1008A00087E490E02C812095FC01208388E490E08F
:1008B0002D812095FC01208384EB90E02E812095F2
:1008C000FC0120838AE090E00E9453003FC00E9418
:1008D0000C02969587959695879589839E012A5F48
:1008E0003F4FAE014B5F5F4FCE010496BC01898143
:1008F0000E94E70088E890E02981222F30E0235809
:100900003F4F220F331F22953295307F3227207FB1
:100910003227FC013183208387E490E02C812095ED
:10092000FC01208388E490E02D812095FC01208348
:1009300084EB90E02E812095FC0120838AE090E0FA
:100940000E94530003C0000001C0000080914D01CF
:10095000882309F0A7CE80914A01882309F4A2CE0A
:100960000E946E029FCE1F920F9200905F000F9226
:1009700011242F933F938F939F93EF93FF93CF93E4
:10098000DF93CDB7DEB788E290E028E230E0F901EE
:1009900020812D7FFC0120830000DF91CF91FF910A
:1009A000EF919F918F913F912F910F9000925F0057
:1009B0000F901F9018951F920F9200905F000F925A
:1009C00011242F933F938F939F93EF93FF93CF9394
:1009D000DF93CDB7DEB780914A01882F90E0009772
:1009E00029F09923FCF00397ECF412C087E490E01F
:1009F0002FEFFC01208388E490E02FEFFC0120839F
:100A000084EB90E02FEFFC01208310924B010BC090
:100A100088E290E028E230E0F90120812260FC01C8
:100A2000208301C000000000DF91CF91FF91EF9182
:100A30009F918F913F912F910F9000925F000F90A7
:100A40001F90189597FB072E16F4009407D077FD9A
:100A500009D00E94360507FC05D03EF4909581959B
:100A60009F4F0895709561957F4F0895AA1BBB1BFA
:100A700051E107C0AA1FBB1FA617B70710F0A61B9E
:100A8000B70B881F991F5A95A9F780959095BC01BF
:080A9000CD010895F894FFCF99
:100A9800393837363534333231303132333435360C
:100AA800373839000D0A53746172740D0A005258B0
:100AB800206D6F64650D0A005458206175746F20AD
:100AC8006D6F64650D0A00545820706F7461722050
:0A0AD8006D6F64650D0A000A0D0041
:00000001FF
